:02000002D0002C
:1040000000400D0074530D00000006000D00050176
:084010000401E80500000000B6
:04401800D44F0D0074
:10401C0009480A49884208B505D0094A824202D0AB
:10402C00121A00F08DFF0748074A0021121A00F0FF
:10403C0092FF014808BD00BF64E30320E4520D0069
:10404C00CCE30320CCE30320F0E7032070B500F0B1
:10405C00CBFA074C074BE41AA40800251E46A542D0
:10406C0004D056F8253098470135F8E770BD00BFED
:10407C00D4520D009C520D0000F013B808B500F09E
:10408C0011F8BDE8084000F071BA00F04BB900F02F
:10409C0049B90078B0FA80F04009704701230370E9
:1040AC0070477047704700F011B8000008B5024B1C
:1040BC001B689B68019308BD6802030008B5024B9E
:1040CC001B68DB68019308BD6802030008B5024B4E
:1040DC001B681B68019308BD2C02030008B5024B3A
:1040EC001B685B68019308BD1802030008B5024BFE
:1040FC001B685B69019308BD1802030008B5024BED
:10410C001B689B68019308BD4802030008B5024B6D
:10411C001B681B69019308BD4802030008B5024BDC
:10412C001B685B69019308BD4802030008B5024B8C
:10413C001B685B6C019308BD4802030008B5024B79
:10414C001B689B6C019308BD4802030008B5024B29
:10415C001B685B69019308BD6402030008B5024B40
:10416C001B681B68019308BD3C02030008B5024B99
:10417C001B68DB68019308BD3C02030008B5024BC9
:10418C001B681B69019308BD3C02030008B5024B78
:10419C001B685B69019308BD3C02030008B5024B28
:1041AC001B689B69019308BD3C02030008B5024BD8
:1041BC001B68DB69019308BD3C02030008B5024B88
:1041CC001B689B6A019308BD3C02030008B5024BB7
:1041DC001B681B68019308BD4C02030008B5024B19
:1041EC001B681B69019308BD4C02030008B5024B08
:1041FC001B685B69019308BD4C02030008B5024BB8
:10420C001B689B69019308BD4C02030008B5024B67
:10421C001B68DB69019308BD4C02030008B5024B17
:10422C001B681B6A019308BD4C02030008B5024BC6
:10423C001B685B68019308BD2002030008B5034BA3
:10424C001B68D3F88830019308BD000020020300DE
:10425C0008B5034B1B68D3F89430019308BD0000DC
:10426C002002030008B5024B1B685B68019308BD74
:10427C004002030008B5024B1B689B68019308BD04
:10428C004002030008B5024B1B68DB68019308BDB4
:10429C004002030008B5024B1B681B69019308BD63
:1042AC004002030008B5024B1B685B69019308BD13
:1042BC004002030008B5024B1B689B69019308BDC3
:1042CC004002030008B5024B1B68DB69019308BD73
:1042DC004002030008B5024B1B681B6A019308BD22
:1042EC004002030008B5024B1B681B6B019308BD11
:1042FC004002030008B5024B1B685B6B019308BDC1
:10430C004002030008B5024B1B68DB6B019308BD30
:10431C004402030008B5024B1B681B68019308BDDF
:10432C001C02030008B5024B1B685B68019308BDB7
:10433C001C020300002211464068FFF7CBBF00228D
:10434C0011464068FFF7D6BF00224068FFF7CABF8E
:10435C00002281F001014068FFF7B4BF00231A4628
:10436C0019464068FFF7A6BF00231A461946406855
:10437C00FFF798BF002211464068FFF78BBF002261
:10438C0011464068FFF776BF002202214068FFF714
:10439C0079BF00231A464068FFF764BF024B032223
:1043AC005A60024A1A607047D0E30320F04F0D00A8
:1043BC0010B50446006818B1FFF7B4FF0023236062
:1043CC0010BD10B50446FFF7F3FF204610BD0000EA
:1043DC0010B5094C00204FF6FF732060A080A0712F
:1043EC0020816381FFF722FF2046044A0449BDE87F
:1043FC00104000F047BC00BFD8E30320CCE30320FF
:10440C00CF430D0010B50446006808B1FFF796FEC7
:10441C00204610BD10B5064C002320462360FFF744
:10442C0085FE2046034A0449BDE8104000F02ABC32
:10443C00E4E30320CCE3032011440D00F8B5064659
:10444C000D468F180024BD420CD0336815F8011BA3
:10445C009B6830469847002801DB0444F3E7002CA6
:10446C0008BF04462046F8BD70B505460C46084604
:10447C0049B100F0A1FD2B68024621462846DB68B5
:10448C00BDE87040184770BD03689B68184730B58D
:10449C008BB00B4600218DF82410012A98BF0A22FC
:1044AC000DF12304B3FBF2F505FB123303F0FF030C
:1044BC00092B94BF30333733DBB2214604F8013972
:1044CC002B46002DEED1FFF7CFFF0BB030BD000017
:1044DC00014B024A1A607047E8E303208F500D002D
:1044EC00024B1A68024B1A60704700BF64E303204A
:1044FC00ECE3032010B58368044613B10322014694
:10450C009847204610BD10B50446FFF7F3FF204630
:10451C0010BD00000348044A04490023836000F0E6
:10452C00B1BB00BFF0E30320CCE3032013450D0027
:10453C0008B50C4B33B100F053F903681B6998476D
:10454C00002809DC084B63B100F014FA03681B69FE
:10455C009847002803DC08BDAFF30080F2E7AFF307
:10456C00008008BD000000000000000008B5FFF747
:10457C00DFFFFFF7BBFD014B186008BD4CE70320C4
:10458C000248034A0349121A00F0DABC00F4032073
:10459C0004F40320E0520D0007B5002300931A46E3
:1045AC006FF07701FFF754FE03B05DF804FB0000D9
:1045BC0007B543880A2B08D0502B09D1094B1B682F
:1045CC003BB103B05DF804EB1847FFF7E5FF06E0DD
:1045DC00002300931A466FF07701FFF739FE03B002
:1045EC005DF804FB00E4032038B5104C104D236833
:1045FC00AB42104B0CBF012200221A7002D0FFF705
:10460C00BFFF2560FFF76AFD044600F0ADFC0A4BC6
:10461C0013B12046AFF3008000210748FFF772FE6C
:10462C0000210648BDE83840FFF708BE00F403201F
:10463C001E1C279A04E4032000000000BD450D0059
:10464C00704710B51821044600F021FB204610BD20
:10465C00F0B5037D062B8DB00E4600F104074FF02C
:10466C00000402D000F1080518E00CAD394605F83D
:10467C00304D2F232A460A20FFF768FD284600F00C
:10468C009BFC33680246DB682946304698470FE0AE
:10469C0024B12E213046FFF7F7FE044415F8011D16
:1046AC000A223046FFF7F3FEBD420444F0D1204607
:1046BC000DB0F0BD10B5054B0446112240F8043B7B
:1046CC00002100F048FC204610BD00BF30510D0009
:1046DC000346074A10B543F8042B01F1100251F8B8
:1046EC00044B43F8044B9142F9D10A781A7010BD6F
:1046FC0030510D0010B59DF8084044EA032343EAFD
:10470C00024242EA016104234160037510BD37B5D2
:10471C000D788B784A78C97800912946FFF7EAFF23
:10472C0003B030BD41747047704708B50021007C60
:10473C00FFF764FD30EA200028BF4FF0FF3008BDC2
:10474C0008B50121007CFFF759FD30EA200028BF95
:10475C004FF0FF3008BD08B5007CFFF747FD20EA9D
:10476C00E07008BD08B5007CFFF738FD20EAE0706A
:10477C0008BD007CFFF752BD10B51421044600F0B3
:10478C0086FA204610BD38B50446007C0D46FFF76E
:10479C002DFD002801DC607C28B12946207CFFF728
:1047AC0035FD20EAE07038BD10B504460023636087
:1047BC004FF47A73A360054B2360012308462174E0
:1047CC0063741146FFF702FD204610BD44510D00E5
:1047DC0010B514220446002100F0BDFB204610BD8C
:1047EC0030B50E4D87B001A8FFF7F2FF296811F024
:1047FC00010410D12846FFF74CFC60B101AA2146F8
:10480C000748FFF7D1FF2846FFF748FC054A064941
:10481C00034800F037FA024807B030BD08E4032023
:10482C000CE40320CCE3032035470D000022114695
:10483C004068FFF72FBD002211464068FFF74ABDC4
:10484C00002211464068FFF755BD00224068FFF773
:10485C0049BD002281F001014068FFF733BD002300
:10486C001A4619464068FFF725BD00231A4619461B
:10487C004068FFF717BD002211464068FFF7FABCED
:10488C00002202214068FFF7FDBC00231A46406855
:10489C00FFF7E8BC38B5084C28252A4600212046ED
:1048AC0000F059FB4FF0FF336360044B258004226A
:1048BC005A60034A1A6038BD28E4032020E4032020
:1048CC0074510D0070474174704708B5007CFFF7B8
:1048DC0075FC20EAE07008BD08B5007CFFF74EFCC3
:1048EC0020EAE07008BD08B5007CFFF757FC30EA01
:1048FC00200028BF4FF0FF3008BD08B5007CFFF743
:10490C0045FC30EA200028BF4FF0FF3008BD007C8A
:10491C00FFF74CBC10B51421044600F0B8F9204642
:10492C0010BD70B5457C04460E4625B9007CFFF7DA
:10493C0045FC002805DD3146207CBDE87040FFF7C2
:10494C0015BC284670BD000010B50446084611463B
:10495C00002262604FF47A72A260054A2260012242
:10496C00207462741A46FFF7F9FB204610BD00BF95
:10497C00A8510D0038B50C4D296811F0010411D166
:10498C002846FFF786FB68B1084A094B09482146BF
:10499C00FFF7DAFF2846FFF781FB074A074905486E
:1049AC0000F070F9034838BDE8E40320ECE4032080
:1049BC0064E4032050E40320CCE30320D1480D0031
:1049CC00002211464068FFF785BC00221146406862
:1049DC00FFF790BC00224068FFF784BC002281F0F6
:1049EC0001014068FFF76EBC00231A4601214068A4
:1049FC00FFF760BC00231A4619464068FFF752BC0B
:104A0C00002211464068FFF745BC00221146406861
:104A1C00FFF730BC002202214068FFF733BC0023B3
:104A2C001A464068FFF71EBC38B5054688B10468C5
:104A3C004CB1A3681BB10322214620469847102194
:104A4C00204600F024F928461421BDE8384000F037
:104A5C001EB938BD10B103685B681847704710B5B4
:104A6C0003680446BBB15868FFF748FB78B9236864
:104A7C005A7C12B95868FFF749FB23685868FFF74E
:104A8C004DFB20680023236028B1FFF7CDFF206881
:104A9C0008B1FFF7C9FF204610BD38B50446D0F861
:104AAC00C40108B1FFF7F3FAD4F8C00108B1FFF75D
:104ABC0045FBD4F8BC5135B12846FFF7D0FF042193
:104ACC00284600F0E4F8206808B1FFF7C3FF204641
:104ADC0038BD000010B5044B044640F8083BFFF706
:104AEC00DCFF204610BD00BFD8510D0038B50E4C70
:104AFC000E4B23600025022304F5E4706360A5606F
:104B0C00C4F8C451C4F8C851FFF710FB084BC4F8E3
:104B1C00CC5184F8D05123602046064A0649BDE8A2
:104B2C00384000F0AFB800BF70E503200C520D0008
:104B3C00D8510D00CCE30320E14A0D0000231A46A6
:104B4C004068FFF78FBB002202214068FFF79ABB39
:104B5C00002211464068FFF78DBB002211464068C9
:104B6C00FFF798BB00231A4619464068FFF79ABB1B
:104B7C0000231A4619464068FFF79CBB002281F0BF
:104B8C0001014068FFF79EBB00224068FFF7AABBFB
:104B9C00002211464068FFF7ADBB00221146406869
:104BAC00FFF798BB2DE9F043002495B016460D464F
:104BBC000746FFF77FFD214620220CA8009400F049
:104BCC00CAF940230C9321466B460CAA3046FFF7DA
:104BDC0075FA0446002844D1024601216868FFF7A3
:104BEC0059FB0221804622466868FFF753FB009E62
:104BFC0081462146002E34D0002932D17368022B15
:104C0C0002D00A2B09D02AE0B8F1000F27D0716925
:104C1C0038460431FFF77BFD20E0B9F1000F1ED0C0
:104C2C007469112201A800F096F906238DF814304E
:104C3C0001AD04F108031834186859682A4603C2F8
:104C4C000833A3421546F7D101A906A807ADFFF713
:104C5C003FFD0FCD3C1D0FC42B6823700121F6695D
:104C6C00C8E70098FFF722FA384615B0BDE8F08384
:104C7C00024B034A1A6000225A60704744E7032033
:104C8C000C520D000B460146184600F04BB9FFF7CD
:104C9C00FCB90000184B1A68D1075CBF01221A60DE
:104CAC00164B1A68D2075CBF01221A60144B1A68A3
:104CBC00D0075CBF01221A60124B1A68D1075CBF87
:104CCC0001221A60104B1A68D2075CBF01221A60CD
:104CDC000E4B1A68D0075CBF01221A600C4B1A6885
:104CEC00D1075CBF01221A600A4B1A68D2075CBF5D
:104CFC0001221A60704700BF6CE7032068E70320AD
:104D0C0064E7032060E703205CE7032058E70320F7
:104D1C0054E7032050E70320244B1A68D0075CBFEC
:104D2C0001221A60224B1A68D1075CBF01221A605B
:104D3C00204B1A68D2075CBF01221A601E4B1A68FE
:104D4C00D0075CBF01221A601C4B1A68D1075CBFEC
:104D5C0001221A601A4B1A68D2075CBF01221A6032
:104D6C00184B1A68D0075CBF01221A60164B1A68E0
:104D7C00D1075CBF01221A60144B1A68D2075CBFC2
:104D8C0001221A60124B1A68D0075CBF01221A600C
:104D9C00104B1A68D1075CBF01221A600E4B1A68BF
:104DAC00D2075CBF01221A60704700BF9CE703204A
:104DBC0098E7032094E7032090E703208CE7032077
:104DCC0088E7032084E7032080E703207CE70320A7
:104DDC0078E7032074E7032070E70320244B1A685C
:104DEC00D0075CBF01221A60224B1A68D1075CBF46
:104DFC0001221A60204B1A68D2075CBF01221A608C
:104E0C001E4B1A68D0075CBF01221A601C4B1A6833
:104E1C00D1075CBF01221A601A4B1A68D2075CBF1B
:104E2C0001221A60184B1A68D0075CBF01221A6065
:104E3C00164B1A68D1075CBF01221A60144B1A6812
:104E4C00D2075CBF01221A60124B1A68D0075CBFF4
:104E5C0001221A60104B1A68D1075CBF01221A603C
:104E6C000E4B1A68D2075CBF01221A60704700BF54
:104E7C00CCE70320C8E70320C4E70320C0E70320E6
:104E8C00BCE70320B8E70320B4E70320B0E7032016
:104E9C00ACE70320A8E70320A4E70320A0E7032046
:104EAC00184B1A68D1075CBF01221A60164B1A689E
:104EBC00D2075CBF01221A60144B1A68D0075CBF82
:104ECC0001221A60124B1A68D1075CBF01221A60CA
:104EDC00104B1A68D2075CBF01221A600E4B1A687D
:104EEC00D0075CBF01221A600C4B1A68D1075CBF5B
:104EFC0001221A600A4B1A68D2075CBF01221A60A1
:104F0C00704700BFECE70320E8E70320E4E7032049
:104F1C00E0E70320DCE70320D8E70320D4E70320F5
:104F2C00D0E7032010B5054C13462CB10A460146B8
:104F3C000220AFF3008010BD204610BD0000000021
:104F4C0010B5431E0A44914204D011F8014B03F8EA
:104F5C00014FF8E710BD02440346934202D003F818
:104F6C00011BFAE77047000038B5124B1C68A36BA5
:104F7C000546D3B91820FFF7CDF943F20E33A063E1
:104F8C0003804AF6CD33438041F2342383804EF2C2
:104F9C006D63C3804DF6EC630381052343810B23C2
:104FAC00838101220023C0E90423A36B00221D612D
:104FBC005A6138BDC8E30320034613F8012B002ABD
:104FCC00FBD1181A013870471D400D0059400D00D7
:104FDC0085400D0089400D0000000000000000001D
:104FEC00000000009F430D0095430D008B430D0006
:104FFC0081430D0075430D0069430D005D430D00A9
:10500C0055430D004B430D0041430D00B14B0D00BA
:10501C00626175640053657269616C0053657269F5
:10502C00616C31007479706500706172616D006340
:10503C006D6400696400686E64007374726D006660
:10504C00696C74006C766C0061646448616E646CAD
:10505C0065720072656D6F766548616E646C657221
:10506C0000656E756D48616E646C657273004A53B1
:10507C004F4E53747265616D4C6F6748616E646C12
:10508C0065720061707000253031307520005D2034
:10509C00002564002C200028293A2000205B0063A6
:1050AC006F6465203D200025690064657461696C3E
:1050BC0073203D20000D0A0066006C6E00666E00C9
:1050CC00636F64650064657461696C006E6F6E6516
:1050DC0000747261636500696E666F007761726E51
:1050EC00006572726F720070616E696300616C6C46
:1050FC00005A00252B3033643A253032750025597F
:10510C002D256D2D25645425483A254D3A255325DA
:10511C007A0061736374696D650000000000000023
:10512C00000000005D460D004D460D004F460D0081
:10513C00000000000000000035470D0085470D0001
:10514C0093470D0049440D0071470D0037470D0082
:10515C004D470D007F470D0063470D0031470D0093
:10516C00000000000000000097480D008D480D0065
:10517C0083480D0039480D0077480D006B480D0031
:10518C005F480D0057480D004D480D0043480D0079
:10519C00B14B0D000000000000000000D1480D00D4
:1051AC0021490D002F490D0049440D00E5480D0023
:1051BC0007490D00F3480D001B490D00D3480D00A5
:1051CC00D7480D0000000000000000002B4A0D0025
:1051DC00214A0D00174A0D000D4A0D00014A0D0021
:1051EC00F5490D00E9490D00E1490D00D7490D00C5
:1051FC00CD490D00B14B0D00000000000000000077
:10520C00494B0D00534B0D005D4B0D00674B0D00D2
:10521C00714B0D007D4B0D00894B0D00954B0D0016
:10522C009D4B0D00A74B0D00B14B0D000000000075
:10523C000000000000000000000000000000000062
:10524C000000000000000000000000000000000052
:10525C000000000000000000000000000000000042
:10526C000000000000000000000000000000000032
:10527C000000000000000000000000000000000022
:10528C0000000000000000000000000043000000CF
:10529C00B3400D00A9430D00DD430D0021440D006A
:1052AC00DD440D00ED440D0021450D00A1480D001D
:1052BC00F94A0D007D4C0D00A14C0D00254D0D0043
:1052CC00E94D0D00AD4E0D00000000000000000087
:0452DC0000000000CE
:0452E00000000000CA
:1052E4001E510D000000000038520D0058520D00F0
:1052F40078520D00000000000000000000000000D3
:105304000000000098520D000000000000000000A2
:105314000000000000000000000000000000000089
:105324000000000000000000000000000000000079
:105334000000000000000000000000000000000069
:085344000000000068E30320F3
:10534C00FFFFFFFF00000102030405060708090A1E
:10535C000B0C0D0E0F101112131415161718191A19
:08536C001B1C1D1E1F20280060
:045374007856341221
:04000003D000401CCD
:00000001FF
